{
  "_format": "hh-sol-artifact-1",
  "contractName": "NFTMarketplace",
  "sourceName": "contracts/NFTMarketplace.sol",
  "abi": [
    {
      "inputs": [],
      "stateMutability": "nonpayable",
      "type": "constructor"
    },
    {
      "inputs": [
        {
          "internalType": "address",
          "name": "owner",
          "type": "address"
        }
      ],
      "name": "OwnableInvalidOwner",
      "type": "error"
    },
    {
      "inputs": [
        {
          "internalType": "address",
          "name": "account",
          "type": "address"
        }
      ],
      "name": "OwnableUnauthorizedAccount",
      "type": "error"
    },
    {
      "inputs": [],
      "name": "ReentrancyGuardReentrantCall",
      "type": "error"
    },
    {
      "anonymous": false,
      "inputs": [
        {
          "indexed": true,
          "internalType": "uint256",
          "name": "listingId",
          "type": "uint256"
        },
        {
          "indexed": true,
          "internalType": "address",
          "name": "nftContract",
          "type": "address"
        },
        {
          "indexed": true,
          "internalType": "uint256",
          "name": "tokenId",
          "type": "uint256"
        },
        {
          "indexed": false,
          "internalType": "address",
          "name": "seller",
          "type": "address"
        }
      ],
      "name": "ListingCancelled",
      "type": "event"
    },
    {
      "anonymous": false,
      "inputs": [
        {
          "indexed": false,
          "internalType": "uint256",
          "name": "oldFee",
          "type": "uint256"
        },
        {
          "indexed": false,
          "internalType": "uint256",
          "name": "newFee",
          "type": "uint256"
        }
      ],
      "name": "MarketplaceFeeUpdated",
      "type": "event"
    },
    {
      "anonymous": false,
      "inputs": [
        {
          "indexed": true,
          "internalType": "uint256",
          "name": "listingId",
          "type": "uint256"
        },
        {
          "indexed": true,
          "internalType": "address",
          "name": "nftContract",
          "type": "address"
        },
        {
          "indexed": true,
          "internalType": "uint256",
          "name": "tokenId",
          "type": "uint256"
        },
        {
          "indexed": false,
          "internalType": "address",
          "name": "seller",
          "type": "address"
        },
        {
          "indexed": false,
          "internalType": "uint256",
          "name": "price",
          "type": "uint256"
        }
      ],
      "name": "NFTListed",
      "type": "event"
    },
    {
      "anonymous": false,
      "inputs": [
        {
          "indexed": true,
          "internalType": "uint256",
          "name": "listingId",
          "type": "uint256"
        },
        {
          "indexed": true,
          "internalType": "address",
          "name": "nftContract",
          "type": "address"
        },
        {
          "indexed": true,
          "internalType": "uint256",
          "name": "tokenId",
          "type": "uint256"
        },
        {
          "indexed": false,
          "internalType": "address",
          "name": "seller",
          "type": "address"
        },
        {
          "indexed": false,
          "internalType": "address",
          "name": "buyer",
          "type": "address"
        },
        {
          "indexed": false,
          "internalType": "uint256",
          "name": "price",
          "type": "uint256"
        }
      ],
      "name": "NFTSold",
      "type": "event"
    },
    {
      "anonymous": false,
      "inputs": [
        {
          "indexed": true,
          "internalType": "address",
          "name": "previousOwner",
          "type": "address"
        },
        {
          "indexed": true,
          "internalType": "address",
          "name": "newOwner",
          "type": "address"
        }
      ],
      "name": "OwnershipTransferred",
      "type": "event"
    },
    {
      "inputs": [],
      "name": "FEE_DENOMINATOR",
      "outputs": [
        {
          "internalType": "uint256",
          "name": "",
          "type": "uint256"
        }
      ],
      "stateMutability": "view",
      "type": "function"
    },
    {
      "inputs": [
        {
          "internalType": "uint256",
          "name": "listingId",
          "type": "uint256"
        }
      ],
      "name": "buyNFT",
      "outputs": [],
      "stateMutability": "payable",
      "type": "function"
    },
    {
      "inputs": [
        {
          "internalType": "uint256",
          "name": "listingId",
          "type": "uint256"
        }
      ],
      "name": "cancelListing",
      "outputs": [],
      "stateMutability": "nonpayable",
      "type": "function"
    },
    {
      "inputs": [],
      "name": "getActiveListings",
      "outputs": [
        {
          "internalType": "uint256[]",
          "name": "",
          "type": "uint256[]"
        }
      ],
      "stateMutability": "view",
      "type": "function"
    },
    {
      "inputs": [
        {
          "internalType": "uint256",
          "name": "listingId",
          "type": "uint256"
        }
      ],
      "name": "getListing",
      "outputs": [
        {
          "components": [
            {
              "internalType": "uint256",
              "name": "listingId",
              "type": "uint256"
            },
            {
              "internalType": "address",
              "name": "nftContract",
              "type": "address"
            },
            {
              "internalType": "uint256",
              "name": "tokenId",
              "type": "uint256"
            },
            {
              "internalType": "address",
              "name": "seller",
              "type": "address"
            },
            {
              "internalType": "uint256",
              "name": "price",
              "type": "uint256"
            },
            {
              "internalType": "bool",
              "name": "active",
              "type": "bool"
            },
            {
              "internalType": "uint256",
              "name": "listedAt",
              "type": "uint256"
            }
          ],
          "internalType": "struct NFTMarketplace.Listing",
          "name": "",
          "type": "tuple"
        }
      ],
      "stateMutability": "view",
      "type": "function"
    },
    {
      "inputs": [
        {
          "internalType": "address",
          "name": "seller",
          "type": "address"
        }
      ],
      "name": "getListingsBySeller",
      "outputs": [
        {
          "internalType": "uint256[]",
          "name": "",
          "type": "uint256[]"
        }
      ],
      "stateMutability": "view",
      "type": "function"
    },
    {
      "inputs": [],
      "name": "getTotalListings",
      "outputs": [
        {
          "internalType": "uint256",
          "name": "",
          "type": "uint256"
        }
      ],
      "stateMutability": "view",
      "type": "function"
    },
    {
      "inputs": [
        {
          "internalType": "address",
          "name": "nftContract",
          "type": "address"
        },
        {
          "internalType": "uint256",
          "name": "tokenId",
          "type": "uint256"
        },
        {
          "internalType": "uint256",
          "name": "price",
          "type": "uint256"
        }
      ],
      "name": "listNFT",
      "outputs": [],
      "stateMutability": "nonpayable",
      "type": "function"
    },
    {
      "inputs": [
        {
          "internalType": "uint256",
          "name": "",
          "type": "uint256"
        }
      ],
      "name": "listings",
      "outputs": [
        {
          "internalType": "uint256",
          "name": "listingId",
          "type": "uint256"
        },
        {
          "internalType": "address",
          "name": "nftContract",
          "type": "address"
        },
        {
          "internalType": "uint256",
          "name": "tokenId",
          "type": "uint256"
        },
        {
          "internalType": "address",
          "name": "seller",
          "type": "address"
        },
        {
          "internalType": "uint256",
          "name": "price",
          "type": "uint256"
        },
        {
          "internalType": "bool",
          "name": "active",
          "type": "bool"
        },
        {
          "internalType": "uint256",
          "name": "listedAt",
          "type": "uint256"
        }
      ],
      "stateMutability": "view",
      "type": "function"
    },
    {
      "inputs": [],
      "name": "marketplaceFee",
      "outputs": [
        {
          "internalType": "uint256",
          "name": "",
          "type": "uint256"
        }
      ],
      "stateMutability": "view",
      "type": "function"
    },
    {
      "inputs": [],
      "name": "owner",
      "outputs": [
        {
          "internalType": "address",
          "name": "",
          "type": "address"
        }
      ],
      "stateMutability": "view",
      "type": "function"
    },
    {
      "inputs": [],
      "name": "renounceOwnership",
      "outputs": [],
      "stateMutability": "nonpayable",
      "type": "function"
    },
    {
      "inputs": [
        {
          "internalType": "address",
          "name": "",
          "type": "address"
        },
        {
          "internalType": "uint256",
          "name": "",
          "type": "uint256"
        }
      ],
      "name": "tokenToListing",
      "outputs": [
        {
          "internalType": "uint256",
          "name": "",
          "type": "uint256"
        }
      ],
      "stateMutability": "view",
      "type": "function"
    },
    {
      "inputs": [
        {
          "internalType": "address",
          "name": "newOwner",
          "type": "address"
        }
      ],
      "name": "transferOwnership",
      "outputs": [],
      "stateMutability": "nonpayable",
      "type": "function"
    },
    {
      "inputs": [
        {
          "internalType": "uint256",
          "name": "newFee",
          "type": "uint256"
        }
      ],
      "name": "updateMarketplaceFee",
      "outputs": [],
      "stateMutability": "nonpayable",
      "type": "function"
    },
    {
      "inputs": [],
      "name": "withdrawFees",
      "outputs": [],
      "stateMutability": "nonpayable",
      "type": "function"
    }
  ],
  "bytecode": "0x608060405260fa60035534801561001557600080fd5b506001600055338061004157604051631e4fbdf760e01b81526000600482015260240160405180910390fd5b61004a81610055565b5060016002556100a7565b600180546001600160a01b038381166001600160a01b0319831681179093556040519116919082907f8be0079c531659141344cd1fd0a4f28419497f9722a3daafe3b4186f6b6457e090600090a35050565b6115bd806100b66000396000f3fe6080604052600436106100f35760003560e01c806387c35bc01161008a578063d8cba25111610059578063d8cba251146102e2578063de74e57b14610302578063f2fde38b146103aa578063fbf30c35146103ca57600080fd5b806387c35bc0146102625780638da5cb5b14610284578063ad05f1b4146102ac578063d73792a9146102cc57600080fd5b806351ed8288116100c657806351ed8288146101de5780636a166964146101f15780636f7b435214610215578063715018a61461024d57600080fd5b8063107a274a146100f8578063305a67a81461018757806330eb80cd146101a9578063476343ee146101c9575b600080fd5b34801561010457600080fd5b506101186101133660046113a4565b6103df565b60405161017e9190600060e08201905082518252602083015160018060a01b0380821660208501526040850151604085015280606086015116606085015250506080830151608083015260a0830151151560a083015260c083015160c083015292915050565b60405180910390f35b34801561019357600080fd5b506101a76101a23660046113a4565b6104a6565b005b3480156101b557600080fd5b506101a76101c43660046113a4565b610618565b3480156101d557600080fd5b506101a76106af565b6101a76101ec3660046113a4565b6107b3565b3480156101fd57600080fd5b5061020760035481565b60405190815260200161017e565b34801561022157600080fd5b506102076102303660046113d2565b600560209081526000928352604080842090915290825290205481565b34801561025957600080fd5b506101a7610c38565b34801561026e57600080fd5b50610277610c4c565b60405161017e91906113fe565b34801561029057600080fd5b506001546040516001600160a01b03909116815260200161017e565b3480156102b857600080fd5b506101a76102c7366004611442565b610d5d565b3480156102d857600080fd5b5061020761271081565b3480156102ee57600080fd5b506102776102fd366004611477565b611148565b34801561030e57600080fd5b5061036a61031d3660046113a4565b6004602081905260009182526040909120805460018201546002830154600384015494840154600585015460069095015493956001600160a01b03938416959294931692909160ff169087565b604080519788526001600160a01b039687166020890152870194909452939091166060850152608084015290151560a083015260c082015260e00161017e565b3480156103b657600080fd5b506101a76103c5366004611477565b6112aa565b3480156103d657600080fd5b506102076112e5565b6104336040518060e001604052806000815260200160006001600160a01b031681526020016000815260200160006001600160a01b0316815260200160008152602001600015158152602001600081525090565b50600090815260046020818152604092839020835160e0810185528154815260018201546001600160a01b039081169382019390935260028201549481019490945260038101549091166060840152908101546080830152600581015460ff16151560a08301526006015460c082015290565b6104ae6112fb565b6000818152600460205260409020600581015460ff1661050a5760405162461bcd60e51b81526020600482015260126024820152714c697374696e67206e6f742061637469766560701b60448201526064015b60405180910390fd5b60038101546001600160a01b031633148061053e5750336105336001546001600160a01b031690565b6001600160a01b0316145b61058a5760405162461bcd60e51b815260206004820152601f60248201527f4f6e6c792073656c6c6572206f72206f776e65722063616e2063616e63656c006044820152606401610501565b6005818101805460ff191690556001820180546001600160a01b03908116600090815260209384526040808220600287018054845290865281832092909255905492546003860154825190841681529151939492169286927f69e5af4ae7d64e2ae64974f8f3d1149f91bd39f3b1dc649f7add227a19093a07928290030190a4506106156001600055565b50565b610620611325565b6103e881111561066a5760405162461bcd60e51b81526020600482015260156024820152744665652063616e6e6f74206578636565642031302560581b6044820152606401610501565b600380549082905560408051828152602081018490527f936008f1e981d6f48d4a529714c27d74d644750a1d215451212ce0f2476f2fbc910160405180910390a15050565b6106b7611325565b47806106fb5760405162461bcd60e51b81526020600482015260136024820152724e6f206665657320746f20776974686472617760681b6044820152606401610501565b600061070f6001546001600160a01b031690565b6001600160a01b03168260405160006040518083038185875af1925050503d8060008114610759576040519150601f19603f3d011682016040523d82523d6000602084013e61075e565b606091505b50509050806107af5760405162461bcd60e51b815260206004820152601760248201527f4661696c656420746f20776974686472617720666565730000000000000000006044820152606401610501565b5050565b6107bb6112fb565b6000818152600460205260409020600581015460ff166108125760405162461bcd60e51b81526020600482015260126024820152714c697374696e67206e6f742061637469766560701b6044820152606401610501565b806004015434101561085d5760405162461bcd60e51b8152602060048201526014602482015273125b9cdd59999a58da595b9d081c185e5b595b9d60621b6044820152606401610501565b60038101546001600160a01b031633036108b95760405162461bcd60e51b815260206004820152601760248201527f43616e6e6f742062757920796f7572206f776e204e46540000000000000000006044820152606401610501565b6003810154600182015460028301546040516331a9108f60e11b815260048101919091526001600160a01b039283169290911690636352211e90602401602060405180830381865afa158015610913573d6000803e3d6000fd5b505050506040513d601f19601f82011682018060405250810190610937919061149b565b6001600160a01b03161461098d5760405162461bcd60e51b815260206004820152601960248201527f53656c6c6572206e6f206c6f6e676572206f776e73204e4654000000000000006044820152606401610501565b600061271060035483600401546109a491906114ce565b6109ae91906114eb565b905060008183600401546109c2919061150d565b6005848101805460ff191690556001850180546001600160a01b0390811660009081526020938452604080822060028a01805484529552808220919091559154600388015493549251632142170760e11b815293821660048501523360248501526044840192909252929350909116906342842e0e90606401600060405180830381600087803b158015610a5557600080fd5b505af1158015610a69573d6000803e3d6000fd5b5050505060038301546040516000916001600160a01b03169083908381818185875af1925050503d8060008114610abc576040519150601f19603f3d011682016040523d82523d6000602084013e610ac1565b606091505b5050905080610b125760405162461bcd60e51b815260206004820181905260248201527f4661696c656420746f2073656e64207061796d656e7420746f2073656c6c65726044820152606401610501565b8360040154341115610bc65760048401546000903390610b32903461150d565b604051600081818185875af1925050503d8060008114610b6e576040519150601f19603f3d011682016040523d82523d6000602084013e610b73565b606091505b5050905080610bc45760405162461bcd60e51b815260206004820152601f60248201527f4661696c656420746f20726566756e6420657863657373207061796d656e74006044820152606401610501565b505b6002840154600185015460038601546004870154604080516001600160a01b0393841681523360208201529081019190915291169087907ffbd14ef83c9e36d4cd05cdc496d3b3a07da3041679b4142908d0ef3cef210dc49060600160405180910390a4505050506106156001600055565b610c40611325565b610c4a6000611352565b565b606060006001600254610c5f919061150d565b9050600060015b828111610ca75760008181526004602052604090206005015460ff1615610c955781610c9181611520565b9250505b80610c9f81611520565b915050610c66565b5060008167ffffffffffffffff811115610cc357610cc3611539565b604051908082528060200260200182016040528015610cec578160200160208202803683370190505b509050600060015b848111610d535760008181526004602052604090206005015460ff1615610d415780838381518110610d2857610d2861154f565b602090810291909101015281610d3d81611520565b9250505b80610d4b81611520565b915050610cf4565b5090949350505050565b610d656112fb565b60008111610db55760405162461bcd60e51b815260206004820152601c60248201527f5072696365206d7573742062652067726561746572207468616e2030000000006044820152606401610501565b6040516331a9108f60e11b81526004810183905233906001600160a01b03851690636352211e90602401602060405180830381865afa158015610dfc573d6000803e3d6000fd5b505050506040513d601f19601f82011682018060405250810190610e20919061149b565b6001600160a01b031614610e6f5760405162461bcd60e51b8152602060048201526016602482015275165bdd48191bdb89dd081bdddb881d1a1a5cc813919560521b6044820152606401610501565b60405163e985e9c560e01b81523360048201523060248201526001600160a01b0384169063e985e9c590604401602060405180830381865afa158015610eb9573d6000803e3d6000fd5b505050506040513d601f19601f82011682018060405250810190610edd9190611565565b80610f59575060405163020604bf60e21b81526004810183905230906001600160a01b0385169063081812fc90602401602060405180830381865afa158015610f2a573d6000803e3d6000fd5b505050506040513d601f19601f82011682018060405250810190610f4e919061149b565b6001600160a01b0316145b610fb65760405162461bcd60e51b815260206004820152602860248201527f4d61726b6574706c616365206e6f7420617070726f76656420746f207472616e6044820152671cd9995c8813919560c21b6064820152608401610501565b6001600160a01b03831660009081526005602090815260408083208584529091529020541561101c5760405162461bcd60e51b815260206004820152601260248201527113919508185b1c9958591e481b1a5cdd195960721b6044820152606401610501565b60028054908190600061102e83611520565b90915550506040805160e0810182528281526001600160a01b0386811660208084018281528486018981523360608701818152608088018b8152600160a08a018181524260c08c0190815260008e81526004808b528e82209d518e559851938d0180546001600160a01b0319908116958e16959095179055965160028d0155935160038c0180549093169a16999099179055519388019390935594516005808801805460ff191692151592909217909155915160069096019590955582855281528484208885528152928490208590558351918252918101859052859284917f18c93addaf4d0e5982a13cb88444441b90223974eaf9d6e898151cb4d96bf153910160405180910390a4506111436001600055565b505050565b60606000600160025461115b919061150d565b9050600060015b8281116111cb576000818152600460205260409020600301546001600160a01b0386811691161480156111a6575060008181526004602052604090206005015460ff165b156111b957816111b581611520565b9250505b806111c381611520565b915050611162565b5060008167ffffffffffffffff8111156111e7576111e7611539565b604051908082528060200260200182016040528015611210578160200160208202803683370190505b509050600060015b84811161129f576000818152600460205260409020600301546001600160a01b03888116911614801561125c575060008181526004602052604090206005015460ff165b1561128d57808383815181106112745761127461154f565b60209081029190910101528161128981611520565b9250505b8061129781611520565b915050611218565b509095945050505050565b6112b2611325565b6001600160a01b0381166112dc57604051631e4fbdf760e01b815260006004820152602401610501565b61061581611352565b600060016002546112f6919061150d565b905090565b60026000540361131e57604051633ee5aeb560e01b815260040160405180910390fd5b6002600055565b6001546001600160a01b03163314610c4a5760405163118cdaa760e01b8152336004820152602401610501565b600180546001600160a01b038381166001600160a01b0319831681179093556040519116919082907f8be0079c531659141344cd1fd0a4f28419497f9722a3daafe3b4186f6b6457e090600090a35050565b6000602082840312156113b657600080fd5b5035919050565b6001600160a01b038116811461061557600080fd5b600080604083850312156113e557600080fd5b82356113f0816113bd565b946020939093013593505050565b6020808252825182820181905260009190848201906040850190845b818110156114365783518352928401929184019160010161141a565b50909695505050505050565b60008060006060848603121561145757600080fd5b8335611462816113bd565b95602085013595506040909401359392505050565b60006020828403121561148957600080fd5b8135611494816113bd565b9392505050565b6000602082840312156114ad57600080fd5b8151611494816113bd565b634e487b7160e01b600052601160045260246000fd5b80820281158282048414176114e5576114e56114b8565b92915050565b60008261150857634e487b7160e01b600052601260045260246000fd5b500490565b818103818111156114e5576114e56114b8565b600060018201611532576115326114b8565b5060010190565b634e487b7160e01b600052604160045260246000fd5b634e487b7160e01b600052603260045260246000fd5b60006020828403121561157757600080fd5b8151801515811461149457600080fdfea26469706673582212203eee7daba25ca9e881385676f74f3c507668a2b42d27f1d06ea43746d522244e64736f6c63430008140033",
  "linkReferences": {},
  "deployedLinkReferences": {}
}