{
  "_format": "hh-sol-artifact-1",
  "contractName": "NFTCollection",
  "sourceName": "contracts/NFTCollection.sol",
  "abi": [
    {
      "inputs": [],
      "stateMutability": "nonpayable",
      "type": "constructor"
    },
    {
      "inputs": [
        {
          "internalType": "address",
          "name": "sender",
          "type": "address"
        },
        {
          "internalType": "uint256",
          "name": "tokenId",
          "type": "uint256"
        },
        {
          "internalType": "address",
          "name": "owner",
          "type": "address"
        }
      ],
      "name": "ERC721IncorrectOwner",
      "type": "error"
    },
    {
      "inputs": [
        {
          "internalType": "address",
          "name": "operator",
          "type": "address"
        },
        {
          "internalType": "uint256",
          "name": "tokenId",
          "type": "uint256"
        }
      ],
      "name": "ERC721InsufficientApproval",
      "type": "error"
    },
    {
      "inputs": [
        {
          "internalType": "address",
          "name": "approver",
          "type": "address"
        }
      ],
      "name": "ERC721InvalidApprover",
      "type": "error"
    },
    {
      "inputs": [
        {
          "internalType": "address",
          "name": "operator",
          "type": "address"
        }
      ],
      "name": "ERC721InvalidOperator",
      "type": "error"
    },
    {
      "inputs": [
        {
          "internalType": "address",
          "name": "owner",
          "type": "address"
        }
      ],
      "name": "ERC721InvalidOwner",
      "type": "error"
    },
    {
      "inputs": [
        {
          "internalType": "address",
          "name": "receiver",
          "type": "address"
        }
      ],
      "name": "ERC721InvalidReceiver",
      "type": "error"
    },
    {
      "inputs": [
        {
          "internalType": "address",
          "name": "sender",
          "type": "address"
        }
      ],
      "name": "ERC721InvalidSender",
      "type": "error"
    },
    {
      "inputs": [
        {
          "internalType": "uint256",
          "name": "tokenId",
          "type": "uint256"
        }
      ],
      "name": "ERC721NonexistentToken",
      "type": "error"
    },
    {
      "inputs": [
        {
          "internalType": "address",
          "name": "owner",
          "type": "address"
        }
      ],
      "name": "OwnableInvalidOwner",
      "type": "error"
    },
    {
      "inputs": [
        {
          "internalType": "address",
          "name": "account",
          "type": "address"
        }
      ],
      "name": "OwnableUnauthorizedAccount",
      "type": "error"
    },
    {
      "anonymous": false,
      "inputs": [
        {
          "indexed": true,
          "internalType": "address",
          "name": "owner",
          "type": "address"
        },
        {
          "indexed": true,
          "internalType": "address",
          "name": "approved",
          "type": "address"
        },
        {
          "indexed": true,
          "internalType": "uint256",
          "name": "tokenId",
          "type": "uint256"
        }
      ],
      "name": "Approval",
      "type": "event"
    },
    {
      "anonymous": false,
      "inputs": [
        {
          "indexed": true,
          "internalType": "address",
          "name": "owner",
          "type": "address"
        },
        {
          "indexed": true,
          "internalType": "address",
          "name": "operator",
          "type": "address"
        },
        {
          "indexed": false,
          "internalType": "bool",
          "name": "approved",
          "type": "bool"
        }
      ],
      "name": "ApprovalForAll",
      "type": "event"
    },
    {
      "anonymous": false,
      "inputs": [
        {
          "indexed": false,
          "internalType": "uint256",
          "name": "_fromTokenId",
          "type": "uint256"
        },
        {
          "indexed": false,
          "internalType": "uint256",
          "name": "_toTokenId",
          "type": "uint256"
        }
      ],
      "name": "BatchMetadataUpdate",
      "type": "event"
    },
    {
      "anonymous": false,
      "inputs": [
        {
          "indexed": false,
          "internalType": "uint256",
          "name": "_tokenId",
          "type": "uint256"
        }
      ],
      "name": "MetadataUpdate",
      "type": "event"
    },
    {
      "anonymous": false,
      "inputs": [
        {
          "indexed": true,
          "internalType": "uint256",
          "name": "tokenId",
          "type": "uint256"
        },
        {
          "indexed": true,
          "internalType": "address",
          "name": "creator",
          "type": "address"
        },
        {
          "indexed": true,
          "internalType": "address",
          "name": "owner",
          "type": "address"
        },
        {
          "indexed": false,
          "internalType": "string",
          "name": "tokenURI",
          "type": "string"
        },
        {
          "indexed": false,
          "internalType": "string",
          "name": "rarity",
          "type": "string"
        }
      ],
      "name": "NFTMinted",
      "type": "event"
    },
    {
      "anonymous": false,
      "inputs": [
        {
          "indexed": true,
          "internalType": "address",
          "name": "previousOwner",
          "type": "address"
        },
        {
          "indexed": true,
          "internalType": "address",
          "name": "newOwner",
          "type": "address"
        }
      ],
      "name": "OwnershipTransferred",
      "type": "event"
    },
    {
      "anonymous": false,
      "inputs": [
        {
          "indexed": true,
          "internalType": "address",
          "name": "from",
          "type": "address"
        },
        {
          "indexed": true,
          "internalType": "address",
          "name": "to",
          "type": "address"
        },
        {
          "indexed": true,
          "internalType": "uint256",
          "name": "tokenId",
          "type": "uint256"
        }
      ],
      "name": "Transfer",
      "type": "event"
    },
    {
      "inputs": [
        {
          "internalType": "address",
          "name": "to",
          "type": "address"
        },
        {
          "internalType": "uint256",
          "name": "tokenId",
          "type": "uint256"
        }
      ],
      "name": "approve",
      "outputs": [],
      "stateMutability": "nonpayable",
      "type": "function"
    },
    {
      "inputs": [
        {
          "internalType": "address",
          "name": "owner",
          "type": "address"
        }
      ],
      "name": "balanceOf",
      "outputs": [
        {
          "internalType": "uint256",
          "name": "",
          "type": "uint256"
        }
      ],
      "stateMutability": "view",
      "type": "function"
    },
    {
      "inputs": [
        {
          "internalType": "uint256",
          "name": "tokenId",
          "type": "uint256"
        }
      ],
      "name": "getApproved",
      "outputs": [
        {
          "internalType": "address",
          "name": "",
          "type": "address"
        }
      ],
      "stateMutability": "view",
      "type": "function"
    },
    {
      "inputs": [],
      "name": "getCurrentTokenId",
      "outputs": [
        {
          "internalType": "uint256",
          "name": "",
          "type": "uint256"
        }
      ],
      "stateMutability": "view",
      "type": "function"
    },
    {
      "inputs": [
        {
          "internalType": "uint256",
          "name": "tokenId",
          "type": "uint256"
        }
      ],
      "name": "getTokenCreator",
      "outputs": [
        {
          "internalType": "address",
          "name": "",
          "type": "address"
        }
      ],
      "stateMutability": "view",
      "type": "function"
    },
    {
      "inputs": [
        {
          "internalType": "uint256",
          "name": "tokenId",
          "type": "uint256"
        }
      ],
      "name": "getTokenRarity",
      "outputs": [
        {
          "internalType": "string",
          "name": "",
          "type": "string"
        }
      ],
      "stateMutability": "view",
      "type": "function"
    },
    {
      "inputs": [
        {
          "internalType": "address",
          "name": "owner",
          "type": "address"
        }
      ],
      "name": "getTokensByOwner",
      "outputs": [
        {
          "internalType": "uint256[]",
          "name": "",
          "type": "uint256[]"
        }
      ],
      "stateMutability": "view",
      "type": "function"
    },
    {
      "inputs": [
        {
          "internalType": "address",
          "name": "owner",
          "type": "address"
        },
        {
          "internalType": "address",
          "name": "operator",
          "type": "address"
        }
      ],
      "name": "isApprovedForAll",
      "outputs": [
        {
          "internalType": "bool",
          "name": "",
          "type": "bool"
        }
      ],
      "stateMutability": "view",
      "type": "function"
    },
    {
      "inputs": [
        {
          "internalType": "address",
          "name": "to",
          "type": "address"
        },
        {
          "internalType": "string",
          "name": "tokenURI",
          "type": "string"
        },
        {
          "internalType": "string",
          "name": "rarity",
          "type": "string"
        }
      ],
      "name": "mintNFT",
      "outputs": [
        {
          "internalType": "uint256",
          "name": "",
          "type": "uint256"
        }
      ],
      "stateMutability": "nonpayable",
      "type": "function"
    },
    {
      "inputs": [],
      "name": "name",
      "outputs": [
        {
          "internalType": "string",
          "name": "",
          "type": "string"
        }
      ],
      "stateMutability": "view",
      "type": "function"
    },
    {
      "inputs": [],
      "name": "owner",
      "outputs": [
        {
          "internalType": "address",
          "name": "",
          "type": "address"
        }
      ],
      "stateMutability": "view",
      "type": "function"
    },
    {
      "inputs": [
        {
          "internalType": "uint256",
          "name": "tokenId",
          "type": "uint256"
        }
      ],
      "name": "ownerOf",
      "outputs": [
        {
          "internalType": "address",
          "name": "",
          "type": "address"
        }
      ],
      "stateMutability": "view",
      "type": "function"
    },
    {
      "inputs": [],
      "name": "renounceOwnership",
      "outputs": [],
      "stateMutability": "nonpayable",
      "type": "function"
    },
    {
      "inputs": [
        {
          "internalType": "address",
          "name": "from",
          "type": "address"
        },
        {
          "internalType": "address",
          "name": "to",
          "type": "address"
        },
        {
          "internalType": "uint256",
          "name": "tokenId",
          "type": "uint256"
        }
      ],
      "name": "safeTransferFrom",
      "outputs": [],
      "stateMutability": "nonpayable",
      "type": "function"
    },
    {
      "inputs": [
        {
          "internalType": "address",
          "name": "from",
          "type": "address"
        },
        {
          "internalType": "address",
          "name": "to",
          "type": "address"
        },
        {
          "internalType": "uint256",
          "name": "tokenId",
          "type": "uint256"
        },
        {
          "internalType": "bytes",
          "name": "data",
          "type": "bytes"
        }
      ],
      "name": "safeTransferFrom",
      "outputs": [],
      "stateMutability": "nonpayable",
      "type": "function"
    },
    {
      "inputs": [
        {
          "internalType": "address",
          "name": "operator",
          "type": "address"
        },
        {
          "internalType": "bool",
          "name": "approved",
          "type": "bool"
        }
      ],
      "name": "setApprovalForAll",
      "outputs": [],
      "stateMutability": "nonpayable",
      "type": "function"
    },
    {
      "inputs": [
        {
          "internalType": "bytes4",
          "name": "interfaceId",
          "type": "bytes4"
        }
      ],
      "name": "supportsInterface",
      "outputs": [
        {
          "internalType": "bool",
          "name": "",
          "type": "bool"
        }
      ],
      "stateMutability": "view",
      "type": "function"
    },
    {
      "inputs": [],
      "name": "symbol",
      "outputs": [
        {
          "internalType": "string",
          "name": "",
          "type": "string"
        }
      ],
      "stateMutability": "view",
      "type": "function"
    },
    {
      "inputs": [
        {
          "internalType": "uint256",
          "name": "",
          "type": "uint256"
        }
      ],
      "name": "tokenCreators",
      "outputs": [
        {
          "internalType": "address",
          "name": "",
          "type": "address"
        }
      ],
      "stateMutability": "view",
      "type": "function"
    },
    {
      "inputs": [
        {
          "internalType": "uint256",
          "name": "",
          "type": "uint256"
        }
      ],
      "name": "tokenRarities",
      "outputs": [
        {
          "internalType": "string",
          "name": "",
          "type": "string"
        }
      ],
      "stateMutability": "view",
      "type": "function"
    },
    {
      "inputs": [
        {
          "internalType": "uint256",
          "name": "tokenId",
          "type": "uint256"
        }
      ],
      "name": "tokenURI",
      "outputs": [
        {
          "internalType": "string",
          "name": "",
          "type": "string"
        }
      ],
      "stateMutability": "view",
      "type": "function"
    },
    {
      "inputs": [],
      "name": "totalSupply",
      "outputs": [
        {
          "internalType": "uint256",
          "name": "",
          "type": "uint256"
        }
      ],
      "stateMutability": "view",
      "type": "function"
    },
    {
      "inputs": [
        {
          "internalType": "address",
          "name": "from",
          "type": "address"
        },
        {
          "internalType": "address",
          "name": "to",
          "type": "address"
        },
        {
          "internalType": "uint256",
          "name": "tokenId",
          "type": "uint256"
        }
      ],
      "name": "transferFrom",
      "outputs": [],
      "stateMutability": "nonpayable",
      "type": "function"
    },
    {
      "inputs": [
        {
          "internalType": "address",
          "name": "newOwner",
          "type": "address"
        }
      ],
      "name": "transferOwnership",
      "outputs": [],
      "stateMutability": "nonpayable",
      "type": "function"
    }
  ],
  "bytecode": "0x60806040523480156200001157600080fd5b50336040518060400160405280601a81526020017f4e4654204d61726b6574706c61636520436f6c6c656374696f6e000000000000815250604051806040016040528060058152602001644e46544d4360d81b8152508160009081620000789190620001c7565b506001620000878282620001c7565b5050506001600160a01b038116620000b957604051631e4fbdf760e01b81526000600482015260240160405180910390fd5b620000c481620000d0565b50600160085562000293565b600780546001600160a01b038381166001600160a01b0319831681179093556040519116919082907f8be0079c531659141344cd1fd0a4f28419497f9722a3daafe3b4186f6b6457e090600090a35050565b634e487b7160e01b600052604160045260246000fd5b600181811c908216806200014d57607f821691505b6020821081036200016e57634e487b7160e01b600052602260045260246000fd5b50919050565b601f821115620001c257600081815260208120601f850160051c810160208610156200019d5750805b601f850160051c820191505b81811015620001be57828155600101620001a9565b5050505b505050565b81516001600160401b03811115620001e357620001e362000122565b620001fb81620001f4845462000138565b8462000174565b602080601f8311600181146200023357600084156200021a5750858301515b600019600386901b1c1916600185901b178555620001be565b600085815260208120601f198616915b82811015620002645788860151825594840194600190910190840162000243565b5085821015620002835787850151600019600388901b60f8161c191681555b5050505050600190811b01905550565b61196580620002a36000396000f3fe608060405234801561001057600080fd5b50600436106101585760003560e01c806370a08231116100c3578063a3ee38ae1161007c578063a3ee38ae146102d1578063b88d4fde146102e4578063c87b56dd146102f7578063e0fd045f1461030a578063e985e9c514610333578063f2fde38b1461034657600080fd5b806370a0823114610277578063715018a61461028a5780638da5cb5b14610292578063934689a9146102a357806395d89b41146102b6578063a22cb465146102be57600080fd5b806323b872dd1161011557806323b872dd1461020357806340398d671461021657806342842e0e14610236578063555ec78b14610249578063561892361461025c5780636352211e1461026457600080fd5b806301ffc9a71461015d57806306fdde0314610185578063081812fc1461019a578063095ea7b3146101c55780630aea2394146101da57806318160ddd146101ed575b600080fd5b61017061016b36600461135b565b610359565b60405190151581526020015b60405180910390f35b61018d61036a565b60405161017c91906113c8565b6101ad6101a83660046113db565b6103fc565b6040516001600160a01b03909116815260200161017c565b6101d86101d3366004611410565b610425565b005b61018d6101e83660046113db565b610434565b6101f56104ce565b60405190815260200161017c565b6101d861021136600461143a565b6104e4565b610229610224366004611476565b610574565b60405161017c9190611491565b6101d861024436600461143a565b61064b565b61018d6102573660046113db565b61066b565b6008546101f5565b6101ad6102723660046113db565b610767565b6101f5610285366004611476565b610772565b6101d86107ba565b6007546001600160a01b03166101ad565b6101ad6102b13660046113db565b6107ce565b61018d610845565b6101d86102cc3660046114d5565b610854565b6101f56102df3660046115bd565b61085f565b6101d86102f2366004611631565b610914565b61018d6103053660046113db565b61092c565b6101ad6103183660046113db565b6009602052600090815260409020546001600160a01b031681565b6101706103413660046116ad565b610937565b6101d8610354366004611476565b610965565b6000610364826109a3565b92915050565b606060008054610379906116e0565b80601f01602080910402602001604051908101604052809291908181526020018280546103a5906116e0565b80156103f25780601f106103c7576101008083540402835291602001916103f2565b820191906000526020600020905b8154815290600101906020018083116103d557829003601f168201915b5050505050905090565b6000610407826109c8565b506000828152600460205260409020546001600160a01b0316610364565b610430828233610a01565b5050565b600a602052600090815260409020805461044d906116e0565b80601f0160208091040260200160405190810160405280929190818152602001828054610479906116e0565b80156104c65780601f1061049b576101008083540402835291602001916104c6565b820191906000526020600020905b8154815290600101906020018083116104a957829003601f168201915b505050505081565b600060016008546104df9190611730565b905090565b6001600160a01b03821661051357604051633250574960e11b8152600060048201526024015b60405180910390fd5b6000610520838333610a0e565b9050836001600160a01b0316816001600160a01b03161461056e576040516364283d7b60e01b81526001600160a01b038086166004830152602482018490528216604482015260640161050a565b50505050565b6060600061058183610772565b905060008167ffffffffffffffff81111561059e5761059e611511565b6040519080825280602002602001820160405280156105c7578160200160208202803683370190505b5090506000806105d56104ce565b905060015b81811161064057866001600160a01b03166105f482610767565b6001600160a01b03160361062e578084848151811061061557610615611743565b60209081029190910101528261062a81611759565b9350505b8061063881611759565b9150506105da565b509195945050505050565b61066683838360405180602001604052806000815250610914565b505050565b6000818152600260205260409020546060906001600160a01b03166106c95760405162461bcd60e51b8152602060048201526014602482015273151bdad95b88191bd95cc81b9bdd08195e1a5cdd60621b604482015260640161050a565b6000828152600a6020526040902080546106e2906116e0565b80601f016020809104026020016040519081016040528092919081815260200182805461070e906116e0565b801561075b5780601f106107305761010080835404028352916020019161075b565b820191906000526020600020905b81548152906001019060200180831161073e57829003601f168201915b50505050509050919050565b6000610364826109c8565b60006001600160a01b03821661079e576040516322718ad960e21b81526000600482015260240161050a565b506001600160a01b031660009081526003602052604090205490565b6107c2610b07565b6107cc6000610b34565b565b6000818152600260205260408120546001600160a01b03166108295760405162461bcd60e51b8152602060048201526014602482015273151bdad95b88191bd95cc81b9bdd08195e1a5cdd60621b604482015260640161050a565b506000908152600960205260409020546001600160a01b031690565b606060018054610379906116e0565b610430338383610b86565b6008805460009181908361087283611759565b91905055506108818582610c25565b61088b8185610c3f565b600081815260096020908152604080832080546001600160a01b03191633179055600a90915290206108bd84826117b8565b50846001600160a01b0316336001600160a01b0316827f8f14bf3a499be9be1bfdecd062178f4245976705ce8a9ab4464f7e22fb0989838787604051610904929190611878565b60405180910390a4949350505050565b61091f8484846104e4565b61056e3385858585610c8f565b606061036482610dba565b6001600160a01b03918216600090815260056020908152604080832093909416825291909152205460ff1690565b61096d610b07565b6001600160a01b03811661099757604051631e4fbdf760e01b81526000600482015260240161050a565b6109a081610b34565b50565b60006001600160e01b03198216632483248360e11b1480610364575061036482610ecb565b6000818152600260205260408120546001600160a01b03168061036457604051637e27328960e01b81526004810184905260240161050a565b6106668383836001610f1b565b6000828152600260205260408120546001600160a01b0390811690831615610a3b57610a3b818486611021565b6001600160a01b03811615610a7957610a58600085600080610f1b565b6001600160a01b038116600090815260036020526040902080546000190190555b6001600160a01b03851615610aa8576001600160a01b0385166000908152600360205260409020805460010190555b60008481526002602052604080822080546001600160a01b0319166001600160a01b0389811691821790925591518793918516917fddf252ad1be2c89b69c2b068fc378daa952ba7f163c4a11628f55a4df523b3ef91a4949350505050565b6007546001600160a01b031633146107cc5760405163118cdaa760e01b815233600482015260240161050a565b600780546001600160a01b038381166001600160a01b0319831681179093556040519116919082907f8be0079c531659141344cd1fd0a4f28419497f9722a3daafe3b4186f6b6457e090600090a35050565b6001600160a01b038216610bb857604051630b61174360e31b81526001600160a01b038316600482015260240161050a565b6001600160a01b03838116600081815260056020908152604080832094871680845294825291829020805460ff191686151590811790915591519182527f17307eab39ab6107e8899845ad3d59bd9653f200f220920489ca2b5937696c31910160405180910390a3505050565b610430828260405180602001604052806000815250611085565b6000828152600660205260409020610c5782826117b8565b506040518281527ff8e1a15aba9398e019f0b49df1a4fde98ee17ae345cb5f6b5e2c27f5033e8ce79060200160405180910390a15050565b6001600160a01b0383163b15610db357604051630a85bd0160e11b81526001600160a01b0384169063150b7a0290610cd19088908890879087906004016118a6565b6020604051808303816000875af1925050508015610d0c575060408051601f3d908101601f19168201909252610d09918101906118e3565b60015b610d75573d808015610d3a576040519150601f19603f3d011682016040523d82523d6000602084013e610d3f565b606091505b508051600003610d6d57604051633250574960e11b81526001600160a01b038516600482015260240161050a565b805160208201fd5b6001600160e01b03198116630a85bd0160e11b14610db157604051633250574960e11b81526001600160a01b038516600482015260240161050a565b505b5050505050565b6060610dc5826109c8565b5060008281526006602052604081208054610ddf906116e0565b80601f0160208091040260200160405190810160405280929190818152602001828054610e0b906116e0565b8015610e585780601f10610e2d57610100808354040283529160200191610e58565b820191906000526020600020905b815481529060010190602001808311610e3b57829003601f168201915b505050505090506000610e7660408051602081019091526000815290565b90508051600003610e88575092915050565b815115610eba578082604051602001610ea2929190611900565b60405160208183030381529060405292505050919050565b610ec38461109d565b949350505050565b60006001600160e01b031982166380ac58cd60e01b1480610efc57506001600160e01b03198216635b5e139f60e01b145b8061036457506301ffc9a760e01b6001600160e01b0319831614610364565b8080610f2f57506001600160a01b03821615155b15610ff1576000610f3f846109c8565b90506001600160a01b03831615801590610f6b5750826001600160a01b0316816001600160a01b031614155b8015610f7e5750610f7c8184610937565b155b15610fa75760405163a9fbf51f60e01b81526001600160a01b038416600482015260240161050a565b8115610fef5783856001600160a01b0316826001600160a01b03167f8c5be1e5ebec7d5bd14f71427d1e84f3dd0314c0f7b2291e5b200ac8c7c3b92560405160405180910390a45b505b5050600090815260046020526040902080546001600160a01b0319166001600160a01b0392909216919091179055565b61102c838383611112565b610666576001600160a01b03831661105a57604051637e27328960e01b81526004810182905260240161050a565b60405163177e802f60e01b81526001600160a01b03831660048201526024810182905260440161050a565b61108f8383611175565b610666336000858585610c8f565b60606110a8826109c8565b5060006110c060408051602081019091526000815290565b905060008151116110e0576040518060200160405280600081525061110b565b806110ea846111da565b6040516020016110fb929190611900565b6040516020818303038152906040525b9392505050565b60006001600160a01b03831615801590610ec35750826001600160a01b0316846001600160a01b0316148061114c575061114c8484610937565b80610ec35750506000908152600460205260409020546001600160a01b03908116911614919050565b6001600160a01b03821661119f57604051633250574960e11b81526000600482015260240161050a565b60006111ad83836000610a0e565b90506001600160a01b03811615610666576040516339e3563760e11b81526000600482015260240161050a565b606060006111e78361126d565b600101905060008167ffffffffffffffff81111561120757611207611511565b6040519080825280601f01601f191660200182016040528015611231576020820181803683370190505b5090508181016020015b600019016f181899199a1a9b1b9c1cb0b131b232b360811b600a86061a8153600a850494508461123b57509392505050565b60008072184f03e93ff9f4daa797ed6e38ed64bf6a1f0160401b83106112ac5772184f03e93ff9f4daa797ed6e38ed64bf6a1f0160401b830492506040015b6d04ee2d6d415b85acef810000000083106112d8576d04ee2d6d415b85acef8100000000830492506020015b662386f26fc1000083106112f657662386f26fc10000830492506010015b6305f5e100831061130e576305f5e100830492506008015b612710831061132257612710830492506004015b60648310611334576064830492506002015b600a83106103645760010192915050565b6001600160e01b0319811681146109a057600080fd5b60006020828403121561136d57600080fd5b813561110b81611345565b60005b8381101561139357818101518382015260200161137b565b50506000910152565b600081518084526113b4816020860160208601611378565b601f01601f19169290920160200192915050565b60208152600061110b602083018461139c565b6000602082840312156113ed57600080fd5b5035919050565b80356001600160a01b038116811461140b57600080fd5b919050565b6000806040838503121561142357600080fd5b61142c836113f4565b946020939093013593505050565b60008060006060848603121561144f57600080fd5b611458846113f4565b9250611466602085016113f4565b9150604084013590509250925092565b60006020828403121561148857600080fd5b61110b826113f4565b6020808252825182820181905260009190848201906040850190845b818110156114c9578351835292840192918401916001016114ad565b50909695505050505050565b600080604083850312156114e857600080fd5b6114f1836113f4565b91506020830135801515811461150657600080fd5b809150509250929050565b634e487b7160e01b600052604160045260246000fd5b600067ffffffffffffffff8084111561154257611542611511565b604051601f8501601f19908116603f0116810190828211818310171561156a5761156a611511565b8160405280935085815286868601111561158357600080fd5b858560208301376000602087830101525050509392505050565b600082601f8301126115ae57600080fd5b61110b83833560208501611527565b6000806000606084860312156115d257600080fd5b6115db846113f4565b9250602084013567ffffffffffffffff808211156115f857600080fd5b6116048783880161159d565b9350604086013591508082111561161a57600080fd5b506116278682870161159d565b9150509250925092565b6000806000806080858703121561164757600080fd5b611650856113f4565b935061165e602086016113f4565b925060408501359150606085013567ffffffffffffffff81111561168157600080fd5b8501601f8101871361169257600080fd5b6116a187823560208401611527565b91505092959194509250565b600080604083850312156116c057600080fd5b6116c9836113f4565b91506116d7602084016113f4565b90509250929050565b600181811c908216806116f457607f821691505b60208210810361171457634e487b7160e01b600052602260045260246000fd5b50919050565b634e487b7160e01b600052601160045260246000fd5b818103818111156103645761036461171a565b634e487b7160e01b600052603260045260246000fd5b60006001820161176b5761176b61171a565b5060010190565b601f82111561066657600081815260208120601f850160051c810160208610156117995750805b601f850160051c820191505b81811015610db1578281556001016117a5565b815167ffffffffffffffff8111156117d2576117d2611511565b6117e6816117e084546116e0565b84611772565b602080601f83116001811461181b57600084156118035750858301515b600019600386901b1c1916600185901b178555610db1565b600085815260208120601f198616915b8281101561184a5788860151825594840194600190910190840161182b565b50858210156118685787850151600019600388901b60f8161c191681555b5050505050600190811b01905550565b60408152600061188b604083018561139c565b828103602084015261189d818561139c565b95945050505050565b6001600160a01b03858116825284166020820152604081018390526080606082018190526000906118d99083018461139c565b9695505050505050565b6000602082840312156118f557600080fd5b815161110b81611345565b60008351611912818460208801611378565b835190830190611926818360208801611378565b0194935050505056fea2646970667358221220f7d65b50b273835dae1ae91e6e5c798efd4581abe129af973162d5647956ecad64736f6c63430008140033",
  "linkReferences": {},
  "deployedLinkReferences": {}
}